:020000021000EC
:100134002F6C69622F6C642D6C696E75782D6172F9
:090144006D68662E736F2E330006
:10015000040000001000000001000000474E5500A0
:100160000000000002000000060000002000000067
:10017000040000001400000003000000474E55007A
:1001800050AE237E8ABA71A7FDACAF8811083C6FD0
:0401900094707DA04A
:1001940025000000360000000200000027000000D7
:1001A4000000000000000000280000002B000000F8
:1001B4000000000000000000320000000000000009
:1001C40000000000300000003500000000000000C6
:1001D4003100000017000000240000002F00000080
:1001E400010000001F0000002D0000002E00000090
:1001F40000000000110000000000000034000000B6
:1002040018000000330000000E0000002000000071
:100214000D00000023000000220000001600000072
:100224001A0000000A0000002A000000000000007C
:1002340000000000000000000000000000000000BA
:1002440003000000050000000000000000000000A2
:100254000000000007000000000000000000000093
:100264000000000008000000000000000000000082
:10027400000000000F00000000000000000000006B
:100284001300000000000000120000000000000045
:100294000000000000000000000000001400000046
:1002A400090000001C000000000000000000000025
:1002B4001B00000000000000060000001500000004
:1002C40019000000000000002100000010000000E0
:1002D4002500000000000000260000000C000000C3
:1002E400000000001D000000000000002C000000C1
:1002F400040000000B000000290000001E000000A4
:0403040000000000F5
:1003080000000000000000000000000000000000E5
:10031800E5030000DC2302000000000000001800D4
:1003280012040000742402000000000000001900FC
:1003380006040000742402000000000000001900F8
:1003480007040000742402000000000000001900E7
:10035800F8030000DC230200000000000000190080
:100368001A040000742402000000000000001900B4
:10037800EC030000DC23020000000000000019006C
:1003880052030000000000000000000012000000FE
:10039800AB02000000000000000000001200000096
:1003A800170000000000000000000000120000001C
:1003B8002A000000A90F01002E00000022000D00F5
:1003C800CF02000000000000000000001200000042
:1003D8003C020000000000000000000012000000C5
:1003E800390000001F1101005E00000022000D000E
:1003F800A60300000000000000000000120000003A
:100408004D000000791601005200000022000D0086
:10041800860200000000000000000000120000003A
:10042800910300000000000000000000120000001E
:100438009E03000000000000000000001200000001
:100448007C000000041E01000000000012000E00E5
:10045800C0030000000000000000000012000000BF
:1004680098030000000000000000000012000000D7
:1004780082000000000000000000000012000000E0
:10048800CB03000000000000000000001200000084
:10049800AD03000000000000000000001200000092
:1004A800A40200000000000000000000120000008C
:1004B8004E020000000000000000000012000000D2
:1004C8009A000000D70F01007200000022000D0002
:1004D800C603000000000000000000001200000039
:1004E800B0000000491001009000000022000D003B
:1004F800C5000000A80C01000000000012000B005D
:10050800E8020000000000000000000012000000E7
:10051800CB000000000000000000000020000000E8
:100528003A030000E02302008C00000011001900CB
:10053800DF000000F51001002A00000022000D0075
:10054800F3000000210F01008800000022000D00C8
:10055800440300000000000000000000120000003A
:1005680015010000210F01008800000022000D0085
:10057800220300000000000000000000120000003C
:10058800B20300000000000000000000120000009C
:10059800B903000000000000000000001200000085
:1005A80037010000AD1701002601000022000D00F0
:1005B80070030000000000000000000012000000AE
:1005C80012030000000000000000000012000000FC
:1005D800BA02000000000000000000001200000045
:1005E8006D01000000000000000000001200000083
:1005F8008C01000000000000000000002000000046
:10060800A8010000A90F01002E00000022000D0023
:10061800D3030000000000000000000012000000EA
:10062800B7010000000000000000000020000000EA
:10063800C6010000000000000000000020000000CB
:10064800E0010000000000000000000012000000AF
:10065800FA020000180E010000000000120000005D
:10066800006C69626F70656E63765F636F72652E8A
:10067800736F2E343035005F5A4E326376386661B8
:10068800737446726565455076005F5A4E326376DC
:10069800334D617444314576005F5A4E4B32637670
:1006A800334D617435746F74616C4576005F5A4ED2
:1006B800537436766563746F724969536149694545
:1006C800453132656D706C6163655F6261636B496A
:1006D8004A694545457644704F545F005F66696EC8
:1006E80069005F5A4E326376334D617436637265C2
:1006F8006174654569504B6969005F5A4E3263768B
:10070800334D617436637265617465456969690062
:100718005F5A4E326376334D61743772656C65612A
:1007280073654576005F696E6974005F4A765F524B
:1007380065676973746572436C6173736573005F91
:100748005A4E4B326376334D617435656D707479EA
:100758004576005F5A4E326376334D6174433145B6
:10076800696969524B4E535F375363616C61725FBD
:1007780049644545005F5A4E326376334D61744390
:100788003245696969524B4E535F375363616C61F7
:10079800725F49644545005F5A4E53743676656307
:1007A800746F72496953614969454531395F4D5FD5
:1007B800656D706C6163655F6261636B5F617578BD
:1007C800494A694545457644704F545F005F5A4E23
:1007D800326376334D6174615345524B4E535F37E4
:1007E8005363616C61725F49644545005F49544DCC
:1007F8005F64657265676973746572544D436C6FA5
:100808006E655461626C65005F5A4E326376334D93
:10081800617444324576005F5F676D6F6E5F737415
:100828006172745F5F005F49544D5F7265676973F9
:10083800746572544D436C6F6E655461626C6500EB
:100848005F5A4E326376334D617431306465616C42
:100858006C6F636174654576006C69626F70656E74
:1008680063765F696D6770726F632E736F2E3430B5
:1008780035006C69626F70656E63765F696D67637A
:100888006F646563732E736F2E343035006C696244
:10089800737464632B2B2E736F2E36005F5F63783F
:1008A800615F626567696E5F6361746368005F5A60
:1008B80053746C734953743131636861725F747235
:1008C8006169747349634545525374313362617386
:1008D80069635F6F73747265616D4963545F4553F3
:1008E800355F504B63005F5A537432305F5F7468F2
:1008F800726F775F6C656E6774685F6572726F722E
:10090800504B63005F5A646C5076005F5F616561AD
:1009180062695F617465786974005F5F6778785FA2
:10092800706572736F6E616C6974795F7630005FA1
:100938005A537431375F5F7468726F775F626164AE
:100948005F616C6C6F6376005F5F6378615F656E93
:10095800645F636C65616E7570005F5A4E537438DE
:10096800696F735F6261736534496E6974443145B8
:1009780076005F5F6378615F656E645F636174636F
:1009880068005F5A4E537438696F735F62617365AC
:1009980034496E697443314576005F5A5374346341
:1009A8006F7574005F5F6378615F72657468726FFA
:1009B80077005F5A6E776A006C69626D2E736F2ECE
:1009C80036006C69626763635F732E736F2E310044
:1009D8005F5F61656162695F756E77696E645F63A9
:1009E80070705F707231006C6962632E736F2E369F
:1009F80000706572726F720061626F727400737456
:100A080072746F6C6C007072696E7466006D6D61E3
:100A180070006D756E6D61700075736C6565700042
:100A2800636C6F7365006F70656E006D656D6D6FDB
:100A38007665005F5F6C6962635F73746172745F8F
:100A48006D61696E005F6564617461005F5F627308
:100A5800735F7374617274005F5F6273735F737442
:100A68006172745F5F005F5F6273735F656E645F7E
:100A78005F005F5F656E645F5F005F656E6400477F
:100A880043435F332E3500474C4942435F322E348F
:100A9800004358584142495F312E3300435858416A
:100AA80042495F41524D5F312E332E3300474C4946
:090AB800424358585F332E34000C
:100AC200000001000100010001000100010001001D
:100AD2000200030000000100020004000100050002
:100AE20001000200050005000100050005000000EC
:100AF20005000500020002000100050001000100DE
:100B020004000000020001000100040001000200D4
:100B120005000500010006000400040000000000BA
:0C0B2200010005000000000000000200BF
:100B3000010001006203000010000000200000001E
:100B40005526790B000006001F040000000000007D
:100B500001000100870300001000000020000000D9
:100B60001469690D00000500270400000000000062
:100B7000010003002D020000100000000000000032
:100B8000D3AF6B050000040031040000100000002A
:100B9000A3AF4908000003003C040000100000005F
:100BA00074299208000002004D04000000000000BB
:100BB000D423020015320000E023020014220000BA
:100BC00060230200160800006423020016090000DA
:100BD00068230200160A00006C230200160C0000B5
:100BE00070230200160D000074230200160F00008F
:100BF00078230200161100007C2302001612000068
:100C00008023020016130000842302001615000042
:100C100088230200161600008C230200161700001D
:100C200090230200161800009423020016190000F9
:100C300098230200161A00009C230200161B0000D5
:100C4000A0230200161D0000A423020016200000AD
:100C5000A823020016250000AC230200162700007E
:100C6000B023020016280000B42302001629000059
:100C7000B8230200162C0000BC230200162D000031
:100C8000C0230200162E0000C4230200163100000B
:100C9000C823020016320000CC23020016340000E4
:080CA000D0230200163500000C
:0C0CA80008402DE9690000EB0880BDE861
:100CB40004E02DE504E09FE50EE08FE008F0BEE5DA
:100CC4009016010000C68FE211CA8CE290F6BCE5D2
:100CD40000C68FE211CA8CE288F6BCE500C68FE23A
:100CE40011CA8CE280F6BCE500C68FE211CA8CE220
:100CF40078F6BCE500C68FE211CA8CE270F6BCE55A
:100D040000C68FE211CA8CE268F6BCE500C68FE229
:100D140011CA8CE260F6BCE500C68FE211CA8CE20F
:100D240058F6BCE500C68FE211CA8CE250F6BCE569
:100D340000C68FE211CA8CE248F6BCE500C68FE219
:100D440011CA8CE240F6BCE500C68FE211CA8CE2FF
:100D540038F6BCE500C68FE211CA8CE230F6BCE579
:100D640000C68FE211CA8CE228F6BCE500C68FE209
:100D740011CA8CE220F6BCE500C68FE211CA8CE2EF
:100D840018F6BCE500C68FE211CA8CE210F6BCE589
:100D940000C68FE211CA8CE208F6BCE500C68FE2F9
:100DA40011CA8CE200F6BCE500C68FE211CA8CE2DF
:100DB400F8F5BCE500C68FE211CA8CE2F0F5BCE59B
:100DC40000C68FE211CA8CE2E8F5BCE500C68FE2EA
:100DD40011CA8CE2E0F5BCE500C68FE211CA8CE2D0
:100DE400D8F5BCE500C68FE211CA8CE2D0F5BCE5AB
:100DF40000C68FE211CA8CE2C8F5BCE500C68FE2DA
:100E040011CA8CE2C0F5BCE500C68FE211CA8CE2BF
:100E1400B8F5BCE500C68FE211CA8CE2B0F5BCE5BA
:100E28004FF0000B4FF0000E02BC6A4604B401B448
:100E3800DFF810C04DF804CD0348044BFFF7D6EF98
:100E4800FFF77AEF011E0100F1110100C11D010039
:100E580014309FE514209FE503308FE0022093E7CC
:100E6800000052E31EFF2F01E2FFFFEAEC1401002D
:100E780080000000074B42F2DC30C0F202001B1A6F
:100E8800062B05D940F20003C0F2000303B118474E
:100E9800704700BFDF23020042F2DC3342F2DC304D
:100EA800C0F20203C0F20200191A891001EBD171D5
:100EB800491005D040F20003C0F2000303B11847FF
:100EC800704700BF10B542F26C44C0F202042378A8
:100ED8001BB9FFF7CFFF0123237010BD42F2382062
:100EE80008B5C0F20200036813B9BDE80840D3E7AB
:100EF80040F20003C0F20003002BF6D09847F4E755
:100F080080B483B000AF786039603B6818460C370E
:100F1800BD465DF8047B704780B584B000AFF860CB
:100F2800B9607A603B60FA680023C4F2FF2313605B
:100F3800FB6800225A60FB6800229A60FB68002266
:100F4800DA60FB6800221A61FB6800225A61FB68BC
:100F580000229A61FB680022DA61FB6800221A62AB
:100F6800FB6800225A62FB6803F12802FB68083319
:100F78001946104600F0FEF8FB682C33184600F0BE
:100F880018F93B687A68B968F86800F020F8B96918
:100F9800F868FFF726EFFB6818461037BD4680BD96
:100FA80080B582B000AF7860786800F049F87B6857
:100FB800DA6A7B6830339A4204D07B68DB6A184669
:100FC800FFF78AEE7B6818460837BD4680BD80B5B6
:100FD80086B000AFF860B9607A603B603B68C3F3E5
:100FE8000B033B60FB685B68022B16DCFB689A68A6
:100FF800BB689A4211D1FB68DA687B689A420CD1C7
:10100800F86800F065F802463B689A4205D1FB682B
:101018001B69002B01D0012300E00023002B0BD11A
:10102800BB683B617B687B6107F110023B6802216A
:10103800F868FFF788EE00E000BF1837BD4680BDAE
:1010480080B584B000AF78607B685B6A002B12D0F3
:101058007B685B6A0C33BFF35B8F53E8002F02F1A8
:10106800FF3143E800100028F7D1BFF35B8F012A56
:1010780001D1012300E00023002B02D07868FFF79C
:10108800C2EE7B6800225A627B6800221A617B6884
:101098000022DA617B68DA697B689A617B689A6901
:1010A8007B685A610023FB607B685A68FB689A4238
:1010B8000ADD7B689A6AFB689B00134400221A6069
:1010C800FB680133FB60EFE700BF1037BD4680BD0A
:1010D80080B483B000AF78607B681B68C3F30B03F0
:1010E80018460C37BD465DF8047B704780B582B062
:1010F80000AF78607B681B69002B05D0786800F02A
:101108000AF80346002B01D1012300E0002318460A
:101118000837BD4680BD80B584B000AF78607B6875
:101128005B68022B07DC7B689B681A467B68DB6878
:1011380003FB02F31AE00123FB600023BB607B681A
:101148005A68BB689A4210DD7B682833B96818462C
:1011580000F01FF803461B681A46FB6802FB03F3FE
:10116800FB60BB680133BB60E9E7FB6818461037D2
:10117800BD4680BD80B483B000AF786039607B68BD
:101188003A681A607B6818460C37BD465DF8047BE0
:10119800704780B483B000AF786039607B681A68A4
:1011A8003B689B00134418460C37BD465DF8047B2A
:1011B800704780B483B000AF78607B681A1D7B6885
:1011C8001A607B681A687B681B6804330021196001
:1011D8001B6813607B6818460C37BD465DF8047BB6
:1011E800704700000000000090B5AFB002AF786013
:1011F80039604FF000034FF00004C7E92A344FF07C
:1012080000034FF00004C7E928344FF000034FF003
:101218000004C7E926340023C7F894300023C7F830
:1012280090300023C7F88C300023C7F8883000239B
:10123800C7F884300023C7F8803007F150039FEDCA
:101248009A0B184600F05CF907F1180007F15003F3
:101258000093002332223221FFF75EFE07F11803C4
:101268001846FFF743FF0346002B0CD041F60C61EC
:10127800C0F2010142F2E030C0F20200FFF77AED5D
:101288004FF0FF34F6E00A22002141F64460C0F234
:101298000100FFF746ED03460C46C7E92A340A2247
:1012A800002141F64C60C0F20100FFF73AED034619
:1012B8000C46C7E9283441F20201C0F2100141F698
:1012C8005060C0F20100FFF75CED0346C7F88430B8
:1012D800D7F88430002B08DA41F65C60C0F20100D0
:1012E800FFF718ED6FF00104C4E04FF0404301939D
:1012F800D7F8843000930123032208210020FFF748
:101308002EEDC7F88C004FF000530193D7F88430C6
:1013180000930123032220210020FFF720EDC7F8C6
:101328008800D7F88C30B3F1FF3F0CD141F67460D8
:10133800C0F20100FFF7EEECD7F88400FFF7F6ECF7
:101348006FF0020496E0D7F88830B3F1FF3F0CD174
:1013580041F68C60C0F20100FFF7DCECD7F884009E
:10136800FFF7E4EC6FF0020484E0D7F88C30C7F89C
:101378009430D7F88830C7F89030D7F89030BB62EF
:10138800D7F890300093D7E9282341F6A060C0F23F
:101398000100FFF7B4ECD7F89020D7E92834C2E968
:1013A8000034D7F894300093D7E92A2341F6C8606F
:1013B800C0F20100FFF7A2ECD7F89420D7E92A344D
:1013C800C2E90034C820FFF7FAECD7F89030D3E927
:1013D8000034C7E92634D7F890300093D7E926239C
:1013E80041F6F060C0F20100FFF788EC0821D7F859
:1013F8008C00FFF7DEECC7F88000D7F88030002BB0
:101408000CDA41F61870C0F20100FFF784ECD7F847
:101418008400FFF78CEC6FF003042BE007F10C035A
:10142800184600F045F810237B6707F1740207F1AE
:101438000C031146184600F095F80923BB6707F11D
:10144800780207F10C031146184600F08BF841F6B4
:101458003070C0F20100FFF752EC002387F87F30AC
:10146800D7F88400FFF762EC002407F10C03184654
:1014780000F02BF807F118031846FFF791FD2346F3
:101488000CE007F10C03184600F01FF8FFE707F11E
:1014980018031846FFF784FDFFF778EC1846B437B1
:1014A800BD4690BDAFF30080000000000000594029
:1014B80080B582B000AF78607B68184600F06FF89E
:1014C8007B6818460837BD4680BDB0B582B000AF0E
:1014D80078607B681C687B685D687B68184600F0EC
:1014E80085F803461A462946204600F08AF87B68A4
:1014F800184600F061F87B6818460837BD46B0BD4D
:1015080090B585B000AFF86087ED000BFB68184612
:1015180000F085F8FA68D7E90034C2E90034FA68BF
:101528004FF000034FF00004C2E90634FB68D3E92A
:101538000634FA68C2E90434FB68D3E90434FA686B
:10154800C2E90234FB6818461437BD4690BD80B422
:1015580083B000AF78607B6818460C37BD465DF8ED
:10156800047B704780B582B000AF78603960386816
:10157800FFF7EDFF03461946786800F079F800BFD9
:101588000837BD4680BD80B582B000AF7860786806
:1015980000F0ACF87B6818460837BD4680BD80B5BA
:1015A80082B000AF78607B68184600F08AF87B68E4
:1015B80018460837BD4680BD80B582B000AF786058
:1015C8007B6819687B689B681A467B681B68D31A16
:1015D8009B101A46786800F095F87B681846FFF764
:1015E800D2FF7B6818460837BD4680BD80B483B0FB
:1015F80000AF78607B6818460C37BD465DF8047B01
:10160800704780B584B000AFF860B9607A60B96897
:10161800F86800F08AF800BF1037BD4680BD80B575
:1016280082B000AF78607B68184600F08BF87B6862
:1016380018460837BD4680BD80B483B000AF7860D7
:101648007B685B681A467B681B68D31A9B10184630
:101658000C37BD465DF8047B704780B483B000AF9B
:1016680078607B6818460C37BD465DF8047B704788
:10167800B0B582B000AF786039607B685A687B6823
:101688009B689A4211D07C687B685D683868FFF770
:10169800E4FF03461A462946204600F070F87B68A6
:1016A8005B681A1D7B685A6007E03868FFF7D5FF4A
:1016B80003461946786800F075F800BF0837BD463C
:1016C800B0BD80B582B000AF7860786800F0FDF8F2
:1016D8007B6800221A607B6800225A607B680022BF
:1016E8009A607B6818460837BD4680BD80B582B0D1
:1016F80000AF7860786800F0F4F87B68184608371F
:10170800BD4680BD80B584B000AFF860B9607A602E
:10171800BB68002B05D0FB687A68B968184600F0EA
:10172800EBF800BF1037BD4680BD80B582B000AF72
:10173800786039603968786800F0EDF800BF0837DC
:10174800BD4680BD90B484B000AF78600023FB60D4
:10175800FB68032B0DDC7A68FB68DB001A444FF04A
:1017680000034FF00004C2E90034FB680133FB605A
:10177800EEE77B6818461037BD4690BC704780B5C9
:1017880084B000AFF860B9607A607868FFF765FFE9
:1017980003461A46B968F86800F0C8F800BF103761
:1017A800BD4680BDB0B586B000AF7860396041F6FF
:1017B8004072C0F201020121786800F0CFF80346B8
:1017C8003B617B683969184600F00FF90346FB60F6
:1017D800FB687B617C687868FFF72EFF03469B00F7
:1017E800FA68D5183868FFF738FF03461A462946BD
:1017F8002046FFF7C4FF00237B617B681C687B6879
:101808005D687B681846FFF7F1FE0346FA682946CB
:10181800204600F0FEF803467B617B6904337B6158
:101828007B681C687B685D687B681846FFF7DEFE8E
:1018380003461A4629462046FFF7E3FE78687B6888
:1018480019687B689B681A467B681B68D31A9B10CB
:101858001A46FFF757FF7B68FA681A607B687A694F
:101868005A603B699B00FA681A447B689A6029E0D1
:1018780003461846FFF73CEA7B69002B0CD17C68CD
:101888007868FFF7D9FE03469B00FA6813441946A7
:10189800204600F0D7F809E07B681846FFF7A6FE57
:1018A80003461A467969F868FFF7ABFE7B683A6920
:1018B800F9681846FFF726FFFFF76EEAFFF784EA94
:1018C800FFF764EA1837BD46B0BD80B582B000AFF7
:1018D8007860786800F0C3F87B6818460837BD461A
:1018E80080BD80B483B000AF78607B6818460C3741
:1018F800BD465DF8047B704780B584B000AFF860E2
:10190800B9607A607A68B968F86800F0B3F800BF1F
:101918001037BD4680BD80B483B000AF78603960B1
:1019280000BF0C37BD465DF8047B704790B585B0A5
:1019380000AFF860B9607A607868FFF78EFE0346FA
:101948001C68BB6819460420FFF7DAFA0346002B27
:1019580000D01C6000BF1437BD4690BD90B587B05D
:1019680000AFF860B9607A60F86800F090F8044653
:10197800F868FFF761FE0346E21ABB689A4234BF73
:1019880001230023DBB2002B02D07868FFF7BCE903
:10199800F868FFF751FE0446F868FFF74DFE034666
:1019A8003B6107F1080207F110031146184600F0E1
:1019B8007FF803461B6823447B61F868FFF73CFE09
:1019C80002467B699A4206D8F86800F060F8024639
:1019D8007B699A4204D2F86800F059F8034600E09F
:1019E8007B6918461C37BD4690BD80B582B000AFF4
:1019F800786039603B68002B06D07B6839681846E8
:101A080000F06AF8034600E0002318460837BD4690
:101A180080BD90B585B000AFF860B9607A603B6072
:101A2800F86800F068F80446B86800F064F8014601
:101A38003B687A68204600F06DF80346184614376C
:101A4800BD4690BD80B582B000AF78603960396816
:101A5800786800F070F800BF0837BD4680BD80B4D4
:101A680083B000AF78607B6818460C37BD465DF8D8
:101A7800047B704780B584B000AFF860B9607A60C5
:101A8800B868FFF772E900BF1037BD4680BD80B562
:101A980082B000AF78607B68184600F063F80346B0
:101AA800184600F053F8034618460837BD4680BD6F
:101AB80080B483B000AF786039607B681A683B688F
:101AC8001B689A4201D23B6800E07B6818460C37D5
:101AD800BD465DF8047B704780B582B000AF786082
:101AE800396000223968786800F047F803461846DC
:101AF8000837BD4680BD80B584B000AF786007F177
:101B08000C037968184600F056F8FB681846103739
:101B1800BD4680BD80B584B000AFF860B9607A601A
:101B28003B607A68B968F86800F054F803461846CC
:101B38001037BD4680BD80B483B000AF786039608F
:101B480000BF0C37BD465DF8047B704780B582B096
:101B580000AF7860786800F04FF8034618460837F9
:101B6800BD4680BD80B483B000AF78607B681846FE
:101B78000C37BD465DF8047B704780B584B000AF74
:101B8800F860B9607A60F86800F036F80246BB6819
:101B98009A4234BF01230023DBB2002B01D0FFF7A8
:101BA800A2E8BB689B001846FFF78AE80346184678
:101BB8001037BD4680BD80B483B000AF786039600F
:101BC8007B683A681A607B6818460C37BD465DF832
:101BD800047B704780B586B000AFF860B9607A6062
:101BE8000123FB757A68B968F86800F011F80346B4
:101BF80018461837BD4680BD80B483B000AF786002
:101C08006FF0404318460C37BD465DF8047B7047BB
:101C180080B584B000AFF860B9607A607A68B96856
:101C2800F86800F005F8034618461037BD4680BD31
:101C380090B585B000AFF860B9607A60F86800F0D8
:101C48000FF80446B86800F00BF803467A6819469E
:101C5800204600F016F8034618461437BD4690BDD6
:101C680080B582B000AF78603B1D184600F030F8B0
:101C78000346184600F038F8034618460837BD46AC
:101C880080BDB0B584B000AFF860B9607A60F8681C
:101C980000F013F80446B86800F00FF805467868B5
:101CA80000F00BF803461A462946204600F027F8AC
:101CB800034618461037BD46B0BD80B483B000AFA8
:101CC80078607B6818460C37BD465DF8047B704722
:101CD80080B483B000AF78607B681B6818460C3707
:101CE800BD465DF8047B704780B483B000AF786070
:101CF8007B6818460C37BD465DF8047B704780B595
:101D080086B000AFF860B9607A600123FB757A6825
:101D1800B968F86800F005F8034618461837BD4654
:101D280080BD80B586B000AFF860B9607A60BA68E7
:101D3800FB68D31A9B107B617B69002B06D07B69FB
:101D48009B001A46F9687868FFF702E87B699B00F0
:101D58007A68134418461837BD4680BD80B582B0EE
:101D680000AF786039607B68012B18D13B684FF66B
:101D7800FF72934213D142F27040C0F20200FFF7A3
:101D880012E842F2D832C0F2020240F61861C0F2FC
:101D9800010142F27040C0F20200FEF798EF00BF66
:101DA8000837BD4680BD80B500AF4FF6FF710120F2
:101DB800FFF7D4FF80BD00002DE9F84306460C4D1F
:101DC8000F469046DFF82C907D44FEF76AEFF94401
:101DD800A5EB0905AD1009D0002459F82430424676
:101DE8000134394630469847A542F6D1BDE8F88314
:0C1DF8006004010052040100704700BFAD
:081E040008402DE90880BDE84B
:101E0C000A20496D616765206E6F7420637265618D
:101E1C007465642E20596F75206861766520646F37
:101E2C006E6520736F6D657468696E672077726F6D
:101E3C006E672E200A0000003230323200000000A3
:101E4C00313230002F6465762F6D656D0000000017
:101E5C00436F756C646E2774206F70656E202F64F1
:101E6C0065762F6D656D0A006D6D617020747269F9
:101E7C0067676572206661696C65642E00000000FE
:101E8C006D6D61702072616D206661696C65642E88
:101E9C0000000000777269746520706978656C5F6A
:101EAC00696E203D20256C6C750961742061646439
:101EBC00726573732025780A0000000077726974CC
:101ECC006520636F6E6669672020203D20256C6C51
:101EDC007509617420616464726573732025780AD6
:101EEC00000000007265616420706978656C5F6F3A
:101EFC007574203D20256C6C7509617420616464D7
:101F0C00726573732025780A00000000436F756CAE
:101F1C00646E7420756E6D617020627269646765A1
:101F2C002E000000777269746520616C7068612EF8
:101F3C00706E6700766563746F723A3A5F4D5F65D9
:101F4C006D706C6163655F6261636B5F6175780076
:101F5C0003970181B0B008840000000074EEFF7F8D
:101F6C0084019701B0B0B008FFFF01000597018113
:101F7C00B0B008840000000003970181B0B0088461
:101F8C000000000001970181B0B00884000000003F
:101F9C0040EEFF7F842C9701B0B0B009FFFF011514
:101FAC005C1800007AB403A60500CE04329A050032
:101FBC00B00504000000000018EEFF7F84019701BB
:101FCC00B0B0B008FFFF010008EEFF7F840197015D
:101FDC00B0B0B00BFFFF010004970181B0B00984D1
:101FEC000000000001970181B0B0088400000000DF
:101FFC00E0EDFF7F84019701B0B0B008FFFF010056
:10200C0003970181B0B008840000000001970181A2
:10201C00B0B00B840000000003970181B0B00884BD
:10202C0000000000ACEDFF7F84059701B0B0B00B51
:10203C00FF90210119161200006E04CC01019401CD
:10204C001E0000EE012A9802009C02040000010010
:10205C000000000006970181B0B009840000000068
:10206C0001970181B0B00884000000000497018141
:10207C00B0B009840000000001970181B0B0088461
:10208C000000000003970181B0B00884000000003C
:10209C0003970181B0B0088400000000059701810E
:1020AC00B0B008840000000003970181B0B0088430
:1020BC000000000004970181B0B00984000000000A
:0C20CC0003970181B0B00B8400000000FD
:1020D80050EDFF7F0100000040EEFF7F78FEFF7F9C
:1020E800C0EEFF7F7CFEFF7FE6EEFF7F84FEFF7F72
:1020F80050EFFF7F88FEFF7FD8EFFF7F01000000D1
:10210800ECEFFF7F84FEFF7F0EF0FF7F01000000F1
:10211800D8F0FF7F80FEFF7F98F3FF7FA0FEFF7F50
:10212800AAF3FF7FA8FEFF7FD8F3FF7FB0FEFF7FF3
:102138001EF4FF7F010000002CF4FF7FACFEFF7F40
:1021480046F4FF7F0100000070F4FF7FA8FEFF7FC8
:102158009CF4FF7F01000000AAF4FF7FA8FEFF7F28
:10216800BEF4FF7F0100000008F5FF7FA4FEFF7F9B
:1021780052F5FF7F010000008CF5FF7FA0FEFF7F76
:10218800AAF5FF7F010000001CF6FF7F9CFEFF7F81
:102198003AF7FF7F01000000C4F7FF7FBCFEFF7F16
:1021A8004AF8FF7FC0FEFF7F6AF8FF7FC4FEFF7F0B
:1021B80094F8FF7F0100000020F9FF7FC0FEFF7F39
:1021C80036F9FF7F010000004CF9FF7FBCFEFF7F5E
:1021D80066F9FF7F01000000A2F9FF7FB8FEFF7FCC
:1021E800D6F9FF7F01000000ECF9FF7FB4FEFF7F06
:1021F80008FAFF7F0100000018FAFF7FB0FEFF7F9A
:1022080030FAFF7FB4FEFF7F58FAFF7F010000001D
:1022180072FAFF7FB0FEFF7FA2FAFF7F0100000085
:0422280000000000B2
:020000022000DC
:08222C00E50E0100AF1D0100E9
:04223400CD0E0100CA
:0422380000000000A2
:10223C00010000000100000001000000F901000095
:10224C000100000012020000010000002D0200003D
:10225C0001000000580300000100000062030000B0
:10226C0001000000870300000C000000A80C010016
:10227C000D000000041E0100190000002C220200B9
:10228C001B000000080000001A00000034220200AD
:10229C001C00000004000000040000009401010078
:1022AC00050000006806010006000000080301009C
:1022BC000A000000590400000B0000001000000090
:1022CC001500000000000000030000005423020071
:1022DC0002000000E80000001400000011000000E3
:1022EC0017000000C00B010011000000B00B010032
:1022FC001200000010000000130000000800000095
:10230C00FEFFFF6F300B0100FFFFFF6F03000000AB
:10231C00F0FFFF6FC20A0100000000000000000087
:10232C0000000000000000000000000000000000A1
:10233C000000000000000000000000000000000091
:08234C00000000000000000089
:102354003C2202000000000000000000B40C010058
:10236400B40C0100B40C0100B40C0100B40C010065
:10237400B40C0100B40C0100B40C0100B40C010055
:10238400B40C0100B40C0100B40C0100B40C010045
:10239400B40C0100B40C0100B40C0100B40C010035
:1023A400B40C0100B40C0100B40C0100B40C010025
:1023B400B40C0100B40C0100B40C0100B40C010015
:1023C400B40C0100B40C0100B40C0100B40C010005
:0423D4000000000005
:0423D8000000000001
:0400000310000E29B2
:00000001FF
